:100000000C945C000C9459010C9432010C9479000E
:100010000C9479000C9479000C9479000C9479007C
:100020000C9479000C9479000C9479000C9479006C
:100030000C9479000C9479000C9479000C9479005C
:100040000C94E8000C9479000C9479000C947900DD
:100050000C9479000C9479000C9479000C9479003C
:100060000C9479000C947900000000080002010053
:100070000003040700000000000000000000000072
:10008000250028002B0000000000240027002A0083
:10009000040404040404040402020202020203032E
:1000A0000303030301020408102040800102040836
:1000B000102001020408102011241FBECFEFD8E049
:1000C000DEBFCDBF11E0A0E0B1E0E2EEF4E002C09F
:1000D00005900D92A430B107D9F721E0A4E0B1E07A
:1000E00001C01D92AF30B207E1F70E9480010C946D
:1000F0006F020C94000090E0FC01E859FF4F24913E
:10010000FC01EC55FF4F3491FC01E057FF4FE491A7
:10011000EE23C9F0222339F0233001F1A8F4213075
:1001200019F1223029F1F0E0EE0FFF1FE458FF4FE4
:10013000A591B4918FB7F894EC91611126C03095D8
:100140003E233C938FBF08952730A9F02830C9F093
:10015000243049F7809180008F7D03C0809180001A
:100160008F7780938000DFCF84B58F7784BDDBCF1E
:1001700084B58F7DFBCF8091B0008F778093B000E6
:10018000D2CF8091B0008F7DF9CF3E2BDACF08958A
:1001900020910D0130910E0148EC429FC001439F18
:1001A000900D11248230910538F0880F991F880F27
:1001B000991F05970197F1F761E08BE00E947B00A2
:1001C00083E290E00197F1F760E08BE00C947B0014
:1001D0001F920F920FB60F9211242F933F938F937C
:1001E0009F93AF93BF938091090190910A01A091D1
:1001F0000B01B0910C013091080123E0230F2D3742
:1002000058F50196A11DB11D2093080180930901A5
:1002100090930A01A0930B01B0930C01809104010B
:1002200090910501A0910601B09107010196A11DD1
:10023000B11D8093040190930501A0930601B09332
:100240000701BF91AF919F918F913F912F910F9097
:100250000FBE0F901F90189526E8230F0296A11D40
:10026000B11DD2CF1F920F920FB60F9211242F9370
:100270003F934F935F936F937F938F939F93AF932E
:10028000BF93EF93FF93E0910201F0910301099571
:10029000FF91EF91BF91AF919F918F917F916F915E
:1002A0005F914F913F912F910F900FBE0F901F9034
:1002B00018951F920F920FB60F9211242F933F9310
:1002C0004F935F936F937F938F939F93AF93BF935E
:1002D000EF93FF93E0910001F09101010995FF91E7
:1002E000EF91BF91AF919F918F917F916F915F91AE
:1002F0004F913F912F910F900FBE0F901F90189527
:10030000789484B5826084BD84B5816084BD85B5F0
:10031000826085BD85B5816085BD80916E008160FC
:1003200080936E00109281008091810082608093A2
:1003300081008091810081608093810080918000A4
:100340008160809380008091B10084608093B100CF
:100350008091B00081608093B00080917A008460C9
:1003600080937A0080917A00826080937A008091F5
:100370007A00816080937A0080917A00806880930F
:100380007A001092C100EFEAF0E02491EBE9F0E08E
:100390008491882399F090E0880F991FFC01EA5717
:1003A000FF4FA591B491FC01E458FF4F85919491C2
:1003B0008FB7F894EC91E22BEC938FBF88EC90E030
:1003C0009093010180930001809169008C7F81608E
:1003D00080936900E89A10E4CC24CA9483E0D82E74
:1003E000E12CF12CC0E0D0E010937C0080917A00E9
:1003F000806480937A0080917A0086FDFCCFA09182
:100400007800B091790027E230E00E946802A701ED
:1004100096010E941802265F3F4F4F4F5F4F309367
:100420000E0120930D012097F9F20E940000DCCF0D
:10043000052E97FB1EF400940E942F0257FD07D053
:100440000E94370207FC03D04EF40C942F02509503
:100450004095309521953F4F4F4F5F4F08959095B0
:100460008095709561957F4F8F4F9F4F0895A1E2C2
:100470001A2EAA1BBB1BFD010DC0AA1FBB1FEE1F1E
:10048000FF1FA217B307E407F50720F0A21BB30B69
:10049000E40BF50B661F771F881F991F1A9469F7E5
:1004A00060957095809590959B01AC01BD01CF0141
:1004B0000895A29FB001B39FC001A39F700D811D3D
:1004C0001124911DB29F700D811D1124911D08955D
:1004D0000E945902B7FF0895821B930B0895F89468
:0204E000FFCF4C
:0404E200C700C70088
:00000001FF
